{
  "contractName": "CrowdXCampaign",
  "abi": [
    {
      "anonymous": false,
      "inputs": [
        {
          "indexed": true,
          "internalType": "uint256",
          "name": "campaignId",
          "type": "uint256"
        },
        {
          "indexed": false,
          "internalType": "string",
          "name": "title",
          "type": "string"
        },
        {
          "indexed": false,
          "internalType": "string",
          "name": "description",
          "type": "string"
        },
        {
          "indexed": false,
          "internalType": "uint256",
          "name": "goalAmount",
          "type": "uint256"
        },
        {
          "indexed": false,
          "internalType": "uint256",
          "name": "startTime",
          "type": "uint256"
        },
        {
          "indexed": false,
          "internalType": "uint256",
          "name": "endTime",
          "type": "uint256"
        },
        {
          "indexed": true,
          "internalType": "address",
          "name": "creator",
          "type": "address"
        }
      ],
      "name": "CampaignCreated",
      "type": "event"
    },
    {
      "anonymous": false,
      "inputs": [
        {
          "indexed": true,
          "internalType": "uint256",
          "name": "campaignId",
          "type": "uint256"
        },
        {
          "indexed": true,
          "internalType": "address",
          "name": "donor",
          "type": "address"
        },
        {
          "indexed": false,
          "internalType": "uint256",
          "name": "amount",
          "type": "uint256"
        }
      ],
      "name": "DonationReceived",
      "type": "event"
    },
    {
      "inputs": [],
      "name": "campaignCounter",
      "outputs": [
        {
          "internalType": "uint256",
          "name": "",
          "type": "uint256"
        }
      ],
      "stateMutability": "view",
      "type": "function",
      "constant": true
    },
    {
      "inputs": [
        {
          "internalType": "uint256",
          "name": "",
          "type": "uint256"
        }
      ],
      "name": "campaigns",
      "outputs": [
        {
          "internalType": "string",
          "name": "title",
          "type": "string"
        },
        {
          "internalType": "string",
          "name": "description",
          "type": "string"
        },
        {
          "internalType": "uint256",
          "name": "goalAmount",
          "type": "uint256"
        },
        {
          "internalType": "uint256",
          "name": "currentAmount",
          "type": "uint256"
        },
        {
          "internalType": "uint256",
          "name": "startTime",
          "type": "uint256"
        },
        {
          "internalType": "uint256",
          "name": "endTime",
          "type": "uint256"
        },
        {
          "internalType": "address",
          "name": "creator",
          "type": "address"
        },
        {
          "internalType": "bool",
          "name": "exists",
          "type": "bool"
        }
      ],
      "stateMutability": "view",
      "type": "function",
      "constant": true
    },
    {
      "inputs": [
        {
          "internalType": "string",
          "name": "_title",
          "type": "string"
        },
        {
          "internalType": "string",
          "name": "_description",
          "type": "string"
        },
        {
          "internalType": "uint256",
          "name": "_goalAmount",
          "type": "uint256"
        },
        {
          "internalType": "uint256",
          "name": "_startTime",
          "type": "uint256"
        },
        {
          "internalType": "uint256",
          "name": "_endTime",
          "type": "uint256"
        }
      ],
      "name": "createCampaign",
      "outputs": [],
      "stateMutability": "nonpayable",
      "type": "function"
    },
    {
      "inputs": [
        {
          "internalType": "uint256",
          "name": "_campaignId",
          "type": "uint256"
        }
      ],
      "name": "donateCampaign",
      "outputs": [],
      "stateMutability": "payable",
      "type": "function",
      "payable": true
    }
  ],
  "bytecode": "0x6080604052600160005534801561001557600080fd5b50610ebf806100256000396000f3fe60806040526004361061003f5760003560e01c8063141961bc146100445780638ffff8b014610088578063b5c89219146100a4578063fca604d7146100cd575b600080fd5b34801561005057600080fd5b5061006b60048036038101906100669190610825565b6100f8565b60405161007f989796959493929190610a95565b60405180910390f35b6100a2600480360381019061009d9190610825565b61027d565b005b3480156100b057600080fd5b506100cb60048036038101906100c6919061077e565b610424565b005b3480156100d957600080fd5b506100e2610658565b6040516100ef9190610be1565b60405180910390f35b600160205280600052604060002060009150905080600001805461011b90610d59565b80601f016020809104026020016040519081016040528092919081815260200182805461014790610d59565b80156101945780601f1061016957610100808354040283529160200191610194565b820191906000526020600020905b81548152906001019060200180831161017757829003601f168201915b5050505050908060010180546101a990610d59565b80601f01602080910402602001604051908101604052809291908181526020018280546101d590610d59565b80156102225780601f106101f757610100808354040283529160200191610222565b820191906000526020600020905b81548152906001019060200180831161020557829003601f168201915b5050505050908060020154908060030154908060040154908060050154908060060160009054906101000a900473ffffffffffffffffffffffffffffffffffffffff16908060060160149054906101000a900460ff16905088565b60006001600083815260200190815260200160002090508060060160149054906101000a900460ff166102e5576040517f08c379a00000000000000000000000000000000000000000000000000000000081526004016102dc90610ba1565b60405180910390fd5b60003411610328576040517f08c379a000000000000000000000000000000000000000000000000000000000815260040161031f90610bc1565b60405180910390fd5b806004015442101561036f576040517f08c379a000000000000000000000000000000000000000000000000000000000815260040161036690610b41565b60405180910390fd5b80600501544211156103b6576040517f08c379a00000000000000000000000000000000000000000000000000000000081526004016103ad90610b21565b60405180910390fd5b348160030160008282546103ca9190610c79565b925050819055503373ffffffffffffffffffffffffffffffffffffffff16827f0b5b4c52969ff7329ecf7ee536409fda87812b15a8622bc6e8cdeab3aee14a26346040516104189190610be1565b60405180910390a35050565b60008311610467576040517f08c379a000000000000000000000000000000000000000000000000000000000815260040161045e90610b61565b60405180910390fd5b8082106104a9576040517f08c379a00000000000000000000000000000000000000000000000000000000081526004016104a090610b81565b60405180910390fd5b600080549050604051806101000160405280878152602001868152602001858152602001600081526020018481526020018381526020013373ffffffffffffffffffffffffffffffffffffffff1681526020016001151581525060016000838152602001908152602001600020600082015181600001908051906020019061053292919061065e565b50602082015181600101908051906020019061054f92919061065e565b5060408201518160020155606082015181600301556080820151816004015560a0820151816005015560c08201518160060160006101000a81548173ffffffffffffffffffffffffffffffffffffffff021916908373ffffffffffffffffffffffffffffffffffffffff16021790555060e08201518160060160146101000a81548160ff0219169083151502179055509050503373ffffffffffffffffffffffffffffffffffffffff16817f5154aeaff3cf749fe129443a883255976e69ca5e2db27a8614526887fa298c358888888888604051610631959493929190610a34565b60405180910390a360008081548092919061064b90610d8b565b9190505550505050505050565b60005481565b82805461066a90610d59565b90600052602060002090601f01602090048101928261068c57600085556106d3565b82601f106106a557805160ff19168380011785556106d3565b828001600101855582156106d3579182015b828111156106d25782518255916020019190600101906106b7565b5b5090506106e091906106e4565b5090565b5b808211156106fd5760008160009055506001016106e5565b5090565b600061071461070f84610c2d565b610bfc565b90508281526020810184848401111561072c57600080fd5b610737848285610d17565b509392505050565b600082601f83011261075057600080fd5b8135610760848260208601610701565b91505092915050565b60008135905061077881610e72565b92915050565b600080600080600060a0868803121561079657600080fd5b600086013567ffffffffffffffff8111156107b057600080fd5b6107bc8882890161073f565b955050602086013567ffffffffffffffff8111156107d957600080fd5b6107e58882890161073f565b94505060406107f688828901610769565b935050606061080788828901610769565b925050608061081888828901610769565b9150509295509295909350565b60006020828403121561083757600080fd5b600061084584828501610769565b91505092915050565b61085781610ccf565b82525050565b61086681610ce1565b82525050565b600061087782610c5d565b6108818185610c68565b9350610891818560208601610d26565b61089a81610e61565b840191505092915050565b60006108b2600d83610c68565b91507f416c726561647920656e646564000000000000000000000000000000000000006000830152602082019050919050565b60006108f2600b83610c68565b91507f4e6f7420737461727465640000000000000000000000000000000000000000006000830152602082019050919050565b6000610932601083610c68565b91507f476f616c206d757374206265203e2030000000000000000000000000000000006000830152602082019050919050565b6000610972601c83610c68565b91507f737461727454696d65203c20656e6454696d65207265717569726564000000006000830152602082019050919050565b60006109b2601283610c68565b91507f43616d706169676e206e6f7420666f756e6400000000000000000000000000006000830152602082019050919050565b60006109f2600d83610c68565b91507f4d7573742073656e6420455448000000000000000000000000000000000000006000830152602082019050919050565b610a2e81610d0d565b82525050565b600060a0820190508181036000830152610a4e818861086c565b90508181036020830152610a62818761086c565b9050610a716040830186610a25565b610a7e6060830185610a25565b610a8b6080830184610a25565b9695505050505050565b6000610100820190508181036000830152610ab0818b61086c565b90508181036020830152610ac4818a61086c565b9050610ad36040830189610a25565b610ae06060830188610a25565b610aed6080830187610a25565b610afa60a0830186610a25565b610b0760c083018561084e565b610b1460e083018461085d565b9998505050505050505050565b60006020820190508181036000830152610b3a816108a5565b9050919050565b60006020820190508181036000830152610b5a816108e5565b9050919050565b60006020820190508181036000830152610b7a81610925565b9050919050565b60006020820190508181036000830152610b9a81610965565b9050919050565b60006020820190508181036000830152610bba816109a5565b9050919050565b60006020820190508181036000830152610bda816109e5565b9050919050565b6000602082019050610bf66000830184610a25565b92915050565b6000604051905081810181811067ffffffffffffffff82111715610c2357610c22610e32565b5b8060405250919050565b600067ffffffffffffffff821115610c4857610c47610e32565b5b601f19601f8301169050602081019050919050565b600081519050919050565b600082825260208201905092915050565b6000610c8482610d0d565b9150610c8f83610d0d565b9250827fffffffffffffffffffffffffffffffffffffffffffffffffffffffffffffffff03821115610cc457610cc3610dd4565b5b828201905092915050565b6000610cda82610ced565b9050919050565b60008115159050919050565b600073ffffffffffffffffffffffffffffffffffffffff82169050919050565b6000819050919050565b82818337600083830152505050565b60005b83811015610d44578082015181840152602081019050610d29565b83811115610d53576000848401525b50505050565b60006002820490506001821680610d7157607f821691505b60208210811415610d8557610d84610e03565b5b50919050565b6000610d9682610d0d565b91507fffffffffffffffffffffffffffffffffffffffffffffffffffffffffffffffff821415610dc957610dc8610dd4565b5b600182019050919050565b7f4e487b7100000000000000000000000000000000000000000000000000000000600052601160045260246000fd5b7f4e487b7100000000000000000000000000000000000000000000000000000000600052602260045260246000fd5b7f4e487b7100000000000000000000000000000000000000000000000000000000600052604160045260246000fd5b6000601f19601f8301169050919050565b610e7b81610d0d565b8114610e8657600080fd5b5056fea26469706673582212209a0827b370da5336d47ff9617893547e32cbc1a46a077a6f00c698e2c18a245864736f6c63430008000033",
  "immutableReferences": {},
  "source": "// SPDX-License-Identifier: MIT\npragma solidity ^0.8.0;\n\ncontract CrowdXCampaign {\n    uint public campaignCounter = 1;\n\n    struct Campaign {\n        string title;\n        string description;\n        uint goalAmount;\n        uint currentAmount;\n        uint startTime;\n        uint endTime;\n        address creator;\n        bool exists;\n    }\n\n    mapping(uint => Campaign) public campaigns;\n\n    event CampaignCreated(\n        uint indexed campaignId,\n        string title,\n        string description,\n        uint goalAmount,\n        uint startTime,\n        uint endTime,\n        address indexed creator\n    );\n\n    //  NEW event\n    event DonationReceived(\n        uint indexed campaignId,\n        address indexed donor,\n        uint amount\n    );\n\n    function createCampaign(\n        string memory _title,\n        string memory _description,\n        uint _goalAmount,\n        uint _startTime,\n        uint _endTime\n    ) external {\n        require(_goalAmount > 0, \"Goal must be > 0\");\n        require(_startTime < _endTime, \"startTime < endTime required\");\n\n        uint campaignId = campaignCounter;\n\n        campaigns[campaignId] = Campaign({\n            title: _title,\n            description: _description,\n            goalAmount: _goalAmount,\n            currentAmount: 0,\n            startTime: _startTime,\n            endTime: _endTime,\n            creator: msg.sender,\n            exists: true\n        });\n\n        emit CampaignCreated(\n            campaignId,\n            _title,\n            _description,\n            _goalAmount,\n            _startTime,\n            _endTime,\n            msg.sender\n        );\n\n        campaignCounter++;\n    }\n\n    /// @notice Donate ETH to an existing campaign\n    function donateCampaign(uint _campaignId) external payable {\n        Campaign storage c = campaigns[_campaignId];\n        require(c.exists,             \"Campaign not found\");\n        require(msg.value > 0,        \"Must send ETH\");\n        require(block.timestamp >= c.startTime, \"Not started\");\n        require(block.timestamp <= c.endTime,   \"Already ended\");\n\n        // bump raised amount\n        c.currentAmount += msg.value;\n\n        emit DonationReceived(_campaignId, msg.sender, msg.value);\n    }\n}\n",
  "sourcePath": "/home/master/Documents/Blockchain-Project/ClassFolder/Frontend/CrowdX2-SmartContract/contracts/CrowdXCampaign.sol",
  "compiler": {
    "name": "solc",
    "version": "0.8.0+commit.c7dfd78e.Emscripten.clang"
  },
  "schemaVersion": "3.4.16",
  "updatedAt": "2025-04-25T01:38:29.927Z",
  "networkType": "ethereum",
  "devdoc": {
    "kind": "dev",
    "methods": {},
    "version": 1
  },
  "userdoc": {
    "kind": "user",
    "methods": {
      "donateCampaign(uint256)": {
        "notice": "Donate ETH to an existing campaign"
      }
    },
    "version": 1
  }
}