{
  "contractName": "CrowdXCampaign",
  "abi": [
    {
      "anonymous": false,
      "inputs": [
        {
          "indexed": true,
          "internalType": "uint256",
          "name": "campaignId",
          "type": "uint256"
        },
        {
          "indexed": true,
          "internalType": "address",
          "name": "creator",
          "type": "address"
        },
        {
          "indexed": false,
          "internalType": "uint256",
          "name": "totalRaised",
          "type": "uint256"
        }
      ],
      "name": "CampaignClosed",
      "type": "event"
    },
    {
      "anonymous": false,
      "inputs": [
        {
          "indexed": true,
          "internalType": "uint256",
          "name": "campaignId",
          "type": "uint256"
        },
        {
          "indexed": false,
          "internalType": "string",
          "name": "title",
          "type": "string"
        },
        {
          "indexed": false,
          "internalType": "string",
          "name": "description",
          "type": "string"
        },
        {
          "indexed": false,
          "internalType": "uint256",
          "name": "goalAmount",
          "type": "uint256"
        },
        {
          "indexed": false,
          "internalType": "uint256",
          "name": "startTime",
          "type": "uint256"
        },
        {
          "indexed": false,
          "internalType": "uint256",
          "name": "endTime",
          "type": "uint256"
        },
        {
          "indexed": true,
          "internalType": "address",
          "name": "creator",
          "type": "address"
        }
      ],
      "name": "CampaignCreated",
      "type": "event"
    },
    {
      "anonymous": false,
      "inputs": [
        {
          "indexed": true,
          "internalType": "uint256",
          "name": "campaignId",
          "type": "uint256"
        },
        {
          "indexed": true,
          "internalType": "address",
          "name": "donor",
          "type": "address"
        },
        {
          "indexed": false,
          "internalType": "uint256",
          "name": "amount",
          "type": "uint256"
        }
      ],
      "name": "DonationReceived",
      "type": "event"
    },
    {
      "inputs": [],
      "name": "campaignCounter",
      "outputs": [
        {
          "internalType": "uint256",
          "name": "",
          "type": "uint256"
        }
      ],
      "stateMutability": "view",
      "type": "function",
      "constant": true
    },
    {
      "inputs": [
        {
          "internalType": "uint256",
          "name": "",
          "type": "uint256"
        }
      ],
      "name": "campaigns",
      "outputs": [
        {
          "internalType": "string",
          "name": "title",
          "type": "string"
        },
        {
          "internalType": "string",
          "name": "description",
          "type": "string"
        },
        {
          "internalType": "uint256",
          "name": "goalAmount",
          "type": "uint256"
        },
        {
          "internalType": "uint256",
          "name": "currentAmount",
          "type": "uint256"
        },
        {
          "internalType": "uint256",
          "name": "startTime",
          "type": "uint256"
        },
        {
          "internalType": "uint256",
          "name": "endTime",
          "type": "uint256"
        },
        {
          "internalType": "address",
          "name": "creator",
          "type": "address"
        },
        {
          "internalType": "bool",
          "name": "closed",
          "type": "bool"
        },
        {
          "internalType": "bool",
          "name": "exists",
          "type": "bool"
        }
      ],
      "stateMutability": "view",
      "type": "function",
      "constant": true
    },
    {
      "inputs": [
        {
          "internalType": "string",
          "name": "_title",
          "type": "string"
        },
        {
          "internalType": "string",
          "name": "_description",
          "type": "string"
        },
        {
          "internalType": "uint256",
          "name": "_goalAmount",
          "type": "uint256"
        },
        {
          "internalType": "uint256",
          "name": "_startTime",
          "type": "uint256"
        },
        {
          "internalType": "uint256",
          "name": "_endTime",
          "type": "uint256"
        }
      ],
      "name": "createCampaign",
      "outputs": [],
      "stateMutability": "nonpayable",
      "type": "function"
    },
    {
      "inputs": [
        {
          "internalType": "uint256",
          "name": "_campaignId",
          "type": "uint256"
        }
      ],
      "name": "donateCampaign",
      "outputs": [],
      "stateMutability": "payable",
      "type": "function",
      "payable": true
    },
    {
      "inputs": [
        {
          "internalType": "uint256",
          "name": "_campaignId",
          "type": "uint256"
        }
      ],
      "name": "isClosed",
      "outputs": [
        {
          "internalType": "bool",
          "name": "",
          "type": "bool"
        }
      ],
      "stateMutability": "view",
      "type": "function",
      "constant": true
    }
  ],
  "bytecode": "0x6080604052600160005534801561001557600080fd5b50611335806100256000396000f3fe60806040526004361061004a5760003560e01c8063141961bc1461004f5780638ffff8b014610094578063b5c89219146100b0578063d5c78a28146100d9578063fca604d714610116575b600080fd5b34801561005b57600080fd5b5061007660048036038101906100719190610b51565b610141565b60405161008b99989796959493929190610eb1565b60405180910390f35b6100ae60048036038101906100a99190610b51565b6102d9565b005b3480156100bc57600080fd5b506100d760048036038101906100d29190610aaa565b610696565b005b3480156100e557600080fd5b5061010060048036038101906100fb9190610b51565b6108f4565b60405161010d9190610e35565b60405180910390f35b34801561012257600080fd5b5061012b610984565b604051610138919061104c565b60405180910390f35b6001602052806000526040600020600091509050806000018054610164906111cf565b80601f0160208091040260200160405190810160405280929190818152602001828054610190906111cf565b80156101dd5780601f106101b2576101008083540402835291602001916101dd565b820191906000526020600020905b8154815290600101906020018083116101c057829003601f168201915b5050505050908060010180546101f2906111cf565b80601f016020809104026020016040519081016040528092919081815260200182805461021e906111cf565b801561026b5780601f106102405761010080835404028352916020019161026b565b820191906000526020600020905b81548152906001019060200180831161024e57829003601f168201915b5050505050908060020154908060030154908060040154908060050154908060060160009054906101000a900473ffffffffffffffffffffffffffffffffffffffff16908060060160149054906101000a900460ff16908060060160159054906101000a900460ff16905089565b60006001600083815260200190815260200160002090508060060160159054906101000a900460ff16610341576040517f08c379a000000000000000000000000000000000000000000000000000000000815260040161033890610fcc565b60405180910390fd5b8060040154421015610388576040517f08c379a000000000000000000000000000000000000000000000000000000000815260040161037f90610fec565b60405180910390fd5b8060060160149054906101000a900460ff16156103da576040517f08c379a00000000000000000000000000000000000000000000000000000000081526004016103d190610f8c565b60405180910390fd5b6000341161041d576040517f08c379a00000000000000000000000000000000000000000000000000000000081526004016104149061102c565b60405180910390fd5b806002015481600301541061048057601e816005015461043d91906110ef565b42111561047f576040517f08c379a000000000000000000000000000000000000000000000000000000000815260040161047690610f4c565b60405180910390fd5b5b3481600301600082825461049491906110ef565b925050819055503373ffffffffffffffffffffffffffffffffffffffff16827f0b5b4c52969ff7329ecf7ee536409fda87812b15a8622bc6e8cdeab3aee14a26346040516104e2919061104c565b60405180910390a3806002015481600301541015801561051157508060060160149054906101000a900460ff16155b8015610521575080600301544710155b156106925760018160060160146101000a81548160ff02191690831515021790555060008160030154905060008260060160009054906101000a900473ffffffffffffffffffffffffffffffffffffffff1673ffffffffffffffffffffffffffffffffffffffff168260405161059690610e20565b60006040518083038185875af1925050503d80600081146105d3576040519150601f19603f3d011682016040523d82523d6000602084013e6105d8565b606091505b505090508061061c576040517f08c379a00000000000000000000000000000000000000000000000000000000081526004016106139061100c565b60405180910390fd5b8260060160009054906101000a900473ffffffffffffffffffffffffffffffffffffffff1673ffffffffffffffffffffffffffffffffffffffff16847fe120b15313f47b70c9196f36751e63aa50b67cf9316c6b5d695b4ad33ce2076f84604051610687919061104c565b60405180910390a350505b5050565b600083116106d9576040517f08c379a00000000000000000000000000000000000000000000000000000000081526004016106d090610f6c565b60405180910390fd5b80821061071b576040517f08c379a000000000000000000000000000000000000000000000000000000000815260040161071290610fac565b60405180910390fd5b600080549050604051806101200160405280878152602001868152602001858152602001600081526020018481526020018381526020013373ffffffffffffffffffffffffffffffffffffffff168152602001600015158152602001600115158152506001600083815260200190815260200160002060008201518160000190805190602001906107ad92919061098a565b5060208201518160010190805190602001906107ca92919061098a565b5060408201518160020155606082015181600301556080820151816004015560a0820151816005015560c08201518160060160006101000a81548173ffffffffffffffffffffffffffffffffffffffff021916908373ffffffffffffffffffffffffffffffffffffffff16021790555060e08201518160060160146101000a81548160ff0219169083151502179055506101008201518160060160156101000a81548160ff0219169083151502179055509050503373ffffffffffffffffffffffffffffffffffffffff16817f5154aeaff3cf749fe129443a883255976e69ca5e2db27a8614526887fa298c3588888888886040516108cd959493929190610e50565b60405180910390a36000808154809291906108e790611201565b9190505550505050505050565b60006001600083815260200190815260200160002060060160159054906101000a900460ff16610959576040517f08c379a000000000000000000000000000000000000000000000000000000000815260040161095090610fcc565b60405180910390fd5b6001600083815260200190815260200160002060060160149054906101000a900460ff169050919050565b60005481565b828054610996906111cf565b90600052602060002090601f0160209004810192826109b857600085556109ff565b82601f106109d157805160ff19168380011785556109ff565b828001600101855582156109ff579182015b828111156109fe5782518255916020019190600101906109e3565b5b509050610a0c9190610a10565b5090565b5b80821115610a29576000816000905550600101610a11565b5090565b6000610a40610a3b84611098565b611067565b905082815260208101848484011115610a5857600080fd5b610a6384828561118d565b509392505050565b600082601f830112610a7c57600080fd5b8135610a8c848260208601610a2d565b91505092915050565b600081359050610aa4816112e8565b92915050565b600080600080600060a08688031215610ac257600080fd5b600086013567ffffffffffffffff811115610adc57600080fd5b610ae888828901610a6b565b955050602086013567ffffffffffffffff811115610b0557600080fd5b610b1188828901610a6b565b9450506040610b2288828901610a95565b9350506060610b3388828901610a95565b9250506080610b4488828901610a95565b9150509295509295909350565b600060208284031215610b6357600080fd5b6000610b7184828501610a95565b91505092915050565b610b8381611145565b82525050565b610b9281611157565b82525050565b6000610ba3826110c8565b610bad81856110de565b9350610bbd81856020860161119c565b610bc6816112d7565b840191505092915050565b6000610bde6027836110de565b91507f46756e64696e6720676f616c206d657420616e642077696e646f77206861732060008301527f65787069726564000000000000000000000000000000000000000000000000006020830152604082019050919050565b6000610c446010836110de565b91507f476f616c206d757374206265203e2030000000000000000000000000000000006000830152602082019050919050565b6000610c846017836110de565b91507f43616d706169676e20616c726561647920636c6f7365640000000000000000006000830152602082019050919050565b6000610cc46018836110de565b91507f5374617274206d757374206265206265666f726520656e6400000000000000006000830152602082019050919050565b6000610d046012836110de565b91507f43616d706169676e206e6f7420666f756e6400000000000000000000000000006000830152602082019050919050565b6000610d446000836110d3565b9150600082019050919050565b6000610d5e600f836110de565b91507f4e6f7420737461727465642079657400000000000000000000000000000000006000830152602082019050919050565b6000610d9e601f836110de565b91507f46756e64207472616e7366657220746f2063726561746f72206661696c6564006000830152602082019050919050565b6000610dde600d836110de565b91507f4d7573742073656e6420455448000000000000000000000000000000000000006000830152602082019050919050565b610e1a81611183565b82525050565b6000610e2b82610d37565b9150819050919050565b6000602082019050610e4a6000830184610b89565b92915050565b600060a0820190508181036000830152610e6a8188610b98565b90508181036020830152610e7e8187610b98565b9050610e8d6040830186610e11565b610e9a6060830185610e11565b610ea76080830184610e11565b9695505050505050565b6000610120820190508181036000830152610ecc818c610b98565b90508181036020830152610ee0818b610b98565b9050610eef604083018a610e11565b610efc6060830189610e11565b610f096080830188610e11565b610f1660a0830187610e11565b610f2360c0830186610b7a565b610f3060e0830185610b89565b610f3e610100830184610b89565b9a9950505050505050505050565b60006020820190508181036000830152610f6581610bd1565b9050919050565b60006020820190508181036000830152610f8581610c37565b9050919050565b60006020820190508181036000830152610fa581610c77565b9050919050565b60006020820190508181036000830152610fc581610cb7565b9050919050565b60006020820190508181036000830152610fe581610cf7565b9050919050565b6000602082019050818103600083015261100581610d51565b9050919050565b6000602082019050818103600083015261102581610d91565b9050919050565b6000602082019050818103600083015261104581610dd1565b9050919050565b60006020820190506110616000830184610e11565b92915050565b6000604051905081810181811067ffffffffffffffff8211171561108e5761108d6112a8565b5b8060405250919050565b600067ffffffffffffffff8211156110b3576110b26112a8565b5b601f19601f8301169050602081019050919050565b600081519050919050565b600081905092915050565b600082825260208201905092915050565b60006110fa82611183565b915061110583611183565b9250827fffffffffffffffffffffffffffffffffffffffffffffffffffffffffffffffff0382111561113a5761113961124a565b5b828201905092915050565b600061115082611163565b9050919050565b60008115159050919050565b600073ffffffffffffffffffffffffffffffffffffffff82169050919050565b6000819050919050565b82818337600083830152505050565b60005b838110156111ba57808201518184015260208101905061119f565b838111156111c9576000848401525b50505050565b600060028204905060018216806111e757607f821691505b602082108114156111fb576111fa611279565b5b50919050565b600061120c82611183565b91507fffffffffffffffffffffffffffffffffffffffffffffffffffffffffffffffff82141561123f5761123e61124a565b5b600182019050919050565b7f4e487b7100000000000000000000000000000000000000000000000000000000600052601160045260246000fd5b7f4e487b7100000000000000000000000000000000000000000000000000000000600052602260045260246000fd5b7f4e487b7100000000000000000000000000000000000000000000000000000000600052604160045260246000fd5b6000601f19601f8301169050919050565b6112f181611183565b81146112fc57600080fd5b5056fea2646970667358221220ab534db2f11e94e4e32dd6f26137f696896511bbff84be13ede5911f0bf22a3064736f6c63430008000033",
  "immutableReferences": {},
  "source": "// SPDX-License-Identifier: MIT\npragma solidity ^0.8.0;\n\ncontract CrowdXCampaign {\n    uint public campaignCounter = 1;\n\n    struct Campaign {\n        string  title;\n        string  description;\n        uint    goalAmount;\n        uint    currentAmount;\n        uint    startTime;\n        uint    endTime;\n        address creator;\n        bool    closed;\n        bool    exists;\n    }\n\n    mapping(uint => Campaign) public campaigns;\n\n    /// @notice Emitted when a new campaign is created\n    event CampaignCreated(\n        uint indexed campaignId,\n        string title,\n        string description,\n        uint goalAmount,\n        uint startTime,\n        uint endTime,\n        address indexed creator\n    );\n\n    /// @notice Emitted each time someone donates\n    event DonationReceived(\n        uint indexed campaignId,\n        address indexed donor,\n        uint amount\n    );\n\n    /// @notice Emitted when funds are finally released to the creator\n    event CampaignClosed(\n        uint indexed campaignId,\n        address indexed creator,\n        uint totalRaised\n    );\n\n    /// @notice Create a new campaign\n    function createCampaign(\n        string memory _title,\n        string memory _description,\n        uint _goalAmount,\n        uint _startTime,\n        uint _endTime\n    ) external {\n        require(_goalAmount > 0, \"Goal must be > 0\");\n        require(_startTime < _endTime, \"Start must be before end\");\n\n        uint id = campaignCounter;\n        campaigns[id] = Campaign({\n            title:         _title,\n            description:   _description,\n            goalAmount:    _goalAmount,\n            currentAmount: 0,\n            startTime:     _startTime,\n            endTime:       _endTime,\n            creator:       msg.sender,\n            closed:        false,\n            exists:        true\n        });\n\n        emit CampaignCreated(\n            id, _title, _description, _goalAmount, _startTime, _endTime, msg.sender\n        );\n\n        campaignCounter++;\n    }\n\n    /// @notice Donate ETH to an existing campaign\n    ///         Once the goal is reached, the creator is paid immediately.\n    ///         Further donations are only accepted for 30 more seconds,\n    ///         and then the campaign is fully closed.\n    function donateCampaign(uint _campaignId) external payable {\n        Campaign storage c = campaigns[_campaignId];\n        require(c.exists,                  \"Campaign not found\");\n        require(block.timestamp >= c.startTime, \"Not started yet\");\n        require(!c.closed,                 \"Campaign already closed\");\n        require(msg.value > 0,             \"Must send ETH\");\n\n        // If we've already hit the goal, only allow 30 more seconds\n        if (c.currentAmount >= c.goalAmount) {\n            require(\n                block.timestamp <= c.endTime + 30,\n                \"Funding goal met and window has expired\"\n            );\n        }\n\n        // 1) Effects\n        c.currentAmount += msg.value;\n        emit DonationReceived(_campaignId, msg.sender, msg.value);\n\n        // 2) Interactions (payout)  only once when first crossing the goal\n        if (\n            c.currentAmount >= c.goalAmount &&\n            !c.closed &&\n            address(this).balance >= c.currentAmount\n        ) {\n            c.closed = true;                              // mark closed first\n            uint payout = c.currentAmount;                // snapshot\n            (bool sent, ) = payable(c.creator).call{value: payout}(\"\");\n            require(sent, \"Fund transfer to creator failed\");\n            emit CampaignClosed(_campaignId, c.creator, payout);\n        }\n    }\n\n    /// @notice Allows anyone to check if a campaign is closed\n    function isClosed(uint _campaignId) external view returns (bool) {\n        require(campaigns[_campaignId].exists, \"Campaign not found\");\n        return campaigns[_campaignId].closed;\n    }\n}\n",
  "sourcePath": "/home/master/Documents/Blockchain-Project/ClassFolder/Frontend/CrowdX2-SmartContract/contracts/CrowdXCampaign.sol",
  "compiler": {
    "name": "solc",
    "version": "0.8.0+commit.c7dfd78e.Emscripten.clang"
  },
  "schemaVersion": "3.4.16",
  "updatedAt": "2025-04-26T00:27:34.931Z",
  "networkType": "ethereum",
  "devdoc": {
    "kind": "dev",
    "methods": {},
    "version": 1
  },
  "userdoc": {
    "events": {
      "CampaignClosed(uint256,address,uint256)": {
        "notice": "Emitted when funds are finally released to the creator"
      },
      "CampaignCreated(uint256,string,string,uint256,uint256,uint256,address)": {
        "notice": "Emitted when a new campaign is created"
      },
      "DonationReceived(uint256,address,uint256)": {
        "notice": "Emitted each time someone donates"
      }
    },
    "kind": "user",
    "methods": {
      "createCampaign(string,string,uint256,uint256,uint256)": {
        "notice": "Create a new campaign"
      },
      "donateCampaign(uint256)": {
        "notice": "Donate ETH to an existing campaign         Once the goal is reached, the creator is paid immediately.         Further donations are only accepted for 30 more seconds,         and then the campaign is fully closed."
      },
      "isClosed(uint256)": {
        "notice": "Allows anyone to check if a campaign is closed"
      }
    },
    "version": 1
  }
}