{
  "contractName": "CrowdXCampaign",
  "abi": [
    {
      "anonymous": false,
      "inputs": [
        {
          "indexed": true,
          "internalType": "uint256",
          "name": "campaignId",
          "type": "uint256"
        },
        {
          "indexed": true,
          "internalType": "address",
          "name": "creator",
          "type": "address"
        },
        {
          "indexed": false,
          "internalType": "uint256",
          "name": "totalRaised",
          "type": "uint256"
        }
      ],
      "name": "CampaignClosed",
      "type": "event"
    },
    {
      "anonymous": false,
      "inputs": [
        {
          "indexed": true,
          "internalType": "uint256",
          "name": "campaignId",
          "type": "uint256"
        },
        {
          "indexed": false,
          "internalType": "string",
          "name": "title",
          "type": "string"
        },
        {
          "indexed": false,
          "internalType": "string",
          "name": "description",
          "type": "string"
        },
        {
          "indexed": false,
          "internalType": "uint256",
          "name": "goalAmount",
          "type": "uint256"
        },
        {
          "indexed": false,
          "internalType": "uint256",
          "name": "startTime",
          "type": "uint256"
        },
        {
          "indexed": false,
          "internalType": "uint256",
          "name": "endTime",
          "type": "uint256"
        },
        {
          "indexed": true,
          "internalType": "address",
          "name": "creator",
          "type": "address"
        }
      ],
      "name": "CampaignCreated",
      "type": "event"
    },
    {
      "anonymous": false,
      "inputs": [
        {
          "indexed": true,
          "internalType": "uint256",
          "name": "campaignId",
          "type": "uint256"
        },
        {
          "indexed": true,
          "internalType": "address",
          "name": "donor",
          "type": "address"
        },
        {
          "indexed": false,
          "internalType": "uint256",
          "name": "amount",
          "type": "uint256"
        }
      ],
      "name": "DonationReceived",
      "type": "event"
    },
    {
      "anonymous": false,
      "inputs": [
        {
          "indexed": true,
          "internalType": "uint256",
          "name": "campaignId",
          "type": "uint256"
        },
        {
          "indexed": true,
          "internalType": "address",
          "name": "creator",
          "type": "address"
        },
        {
          "indexed": false,
          "internalType": "uint256",
          "name": "amount",
          "type": "uint256"
        }
      ],
      "name": "FundsClaimed",
      "type": "event"
    },
    {
      "anonymous": false,
      "inputs": [
        {
          "indexed": true,
          "internalType": "uint256",
          "name": "campaignId",
          "type": "uint256"
        },
        {
          "indexed": true,
          "internalType": "address",
          "name": "donor",
          "type": "address"
        },
        {
          "indexed": false,
          "internalType": "uint256",
          "name": "amount",
          "type": "uint256"
        }
      ],
      "name": "RefundClaimed",
      "type": "event"
    },
    {
      "inputs": [],
      "name": "campaignCounter",
      "outputs": [
        {
          "internalType": "uint256",
          "name": "",
          "type": "uint256"
        }
      ],
      "stateMutability": "view",
      "type": "function",
      "constant": true
    },
    {
      "inputs": [
        {
          "internalType": "string",
          "name": "_title",
          "type": "string"
        },
        {
          "internalType": "string",
          "name": "_description",
          "type": "string"
        },
        {
          "internalType": "uint256",
          "name": "_goalAmount",
          "type": "uint256"
        },
        {
          "internalType": "uint256",
          "name": "_startTime",
          "type": "uint256"
        },
        {
          "internalType": "uint256",
          "name": "_endTime",
          "type": "uint256"
        }
      ],
      "name": "createCampaign",
      "outputs": [],
      "stateMutability": "nonpayable",
      "type": "function"
    },
    {
      "inputs": [
        {
          "internalType": "uint256",
          "name": "_campaignId",
          "type": "uint256"
        }
      ],
      "name": "donateCampaign",
      "outputs": [],
      "stateMutability": "payable",
      "type": "function",
      "payable": true
    },
    {
      "inputs": [
        {
          "internalType": "uint256",
          "name": "_campaignId",
          "type": "uint256"
        }
      ],
      "name": "claimFunds",
      "outputs": [],
      "stateMutability": "nonpayable",
      "type": "function"
    },
    {
      "inputs": [
        {
          "internalType": "uint256",
          "name": "_campaignId",
          "type": "uint256"
        }
      ],
      "name": "claimRefund",
      "outputs": [],
      "stateMutability": "nonpayable",
      "type": "function"
    },
    {
      "inputs": [
        {
          "internalType": "uint256",
          "name": "_campaignId",
          "type": "uint256"
        }
      ],
      "name": "isClosed",
      "outputs": [
        {
          "internalType": "bool",
          "name": "",
          "type": "bool"
        }
      ],
      "stateMutability": "view",
      "type": "function",
      "constant": true
    },
    {
      "inputs": [
        {
          "internalType": "uint256",
          "name": "_campaignId",
          "type": "uint256"
        }
      ],
      "name": "viewCampaign",
      "outputs": [
        {
          "internalType": "string",
          "name": "",
          "type": "string"
        },
        {
          "internalType": "string",
          "name": "",
          "type": "string"
        },
        {
          "internalType": "uint256",
          "name": "",
          "type": "uint256"
        },
        {
          "internalType": "uint256",
          "name": "",
          "type": "uint256"
        },
        {
          "internalType": "uint256",
          "name": "",
          "type": "uint256"
        },
        {
          "internalType": "uint256",
          "name": "",
          "type": "uint256"
        },
        {
          "internalType": "address",
          "name": "",
          "type": "address"
        },
        {
          "internalType": "bool",
          "name": "",
          "type": "bool"
        },
        {
          "internalType": "bool",
          "name": "",
          "type": "bool"
        },
        {
          "internalType": "bool",
          "name": "",
          "type": "bool"
        }
      ],
      "stateMutability": "view",
      "type": "function",
      "constant": true
    }
  ],
  "bytecode": "0x6080604052600160005534801561001557600080fd5b50611c81806100256000396000f3fe6080604052600436106100705760003560e01c8063b5c892191161004e578063b5c89219146100e3578063d5c78a281461010c578063e073346614610149578063fca604d71461018f57610070565b80631b55e338146100755780635b7baf641461009e5780638ffff8b0146100c7575b600080fd5b34801561008157600080fd5b5061009c600480360381019061009791906111ba565b6101ba565b005b3480156100aa57600080fd5b506100c560048036038101906100c091906111ba565b6104ed565b005b6100e160048036038101906100dc91906111ba565b61081a565b005b3480156100ef57600080fd5b5061010a60048036038101906101059190611113565b610ab3565b005b34801561011857600080fd5b50610133600480360381019061012e91906111ba565b610d35565b604051610140919061165e565b60405180910390f35b34801561015557600080fd5b50610170600480360381019061016b91906111ba565b610dc5565b6040516101869a999897969594939291906116da565b60405180910390f35b34801561019b57600080fd5b506101a4610fed565b6040516101b19190611964565b60405180910390f35b60006001600083815260200190815260200160002090508060070160179054906101000a900460ff16610222576040517f08c379a000000000000000000000000000000000000000000000000000000000815260040161021990611884565b60405180910390fd5b3373ffffffffffffffffffffffffffffffffffffffff168160070160009054906101000a900473ffffffffffffffffffffffffffffffffffffffff1673ffffffffffffffffffffffffffffffffffffffff16146102b4576040517f08c379a00000000000000000000000000000000000000000000000000000000081526004016102ab90611844565b60405180910390fd5b8060070160149054906101000a900460ff1615610306576040517f08c379a00000000000000000000000000000000000000000000000000000000081526004016102fd90611824565b60405180910390fd5b8060070160159054906101000a900460ff16610357576040517f08c379a000000000000000000000000000000000000000000000000000000000815260040161034e90611784565b60405180910390fd5b60018160070160146101000a81548160ff02191690831515021790555060018160070160166101000a81548160ff0219169083151502179055506000816003015490506000826003018190555060008260070160009054906101000a900473ffffffffffffffffffffffffffffffffffffffff1673ffffffffffffffffffffffffffffffffffffffff16826040516103ee90611649565b60006040518083038185875af1925050503d806000811461042b576040519150601f19603f3d011682016040523d82523d6000602084013e610430565b606091505b5050905080610474576040517f08c379a000000000000000000000000000000000000000000000000000000000815260040161046b906118c4565b60405180910390fd5b8260070160009054906101000a900473ffffffffffffffffffffffffffffffffffffffff1673ffffffffffffffffffffffffffffffffffffffff16847fa4eb50103b0591feb0bc913f479d92af5eb7ea33e8c397b49bab52ce6af26cb5846040516104df9190611964565b60405180910390a350505050565b60006001600083815260200190815260200160002090508060070160179054906101000a900460ff16610555576040517f08c379a000000000000000000000000000000000000000000000000000000000815260040161054c90611884565b60405180910390fd5b8060060154421161059b576040517f08c379a0000000000000000000000000000000000000000000000000000000008152600401610592906117a4565b60405180910390fd5b8060070160159054906101000a900460ff16156105ed576040517f08c379a00000000000000000000000000000000000000000000000000000000081526004016105e490611944565b60405180910390fd5b60008160080160003373ffffffffffffffffffffffffffffffffffffffff1673ffffffffffffffffffffffffffffffffffffffff1681526020019081526020016000205411610671576040517f08c379a0000000000000000000000000000000000000000000000000000000008152600401610668906117e4565b60405180910390fd5b60008160080160003373ffffffffffffffffffffffffffffffffffffffff1673ffffffffffffffffffffffffffffffffffffffff16815260200190815260200160002054905060008260080160003373ffffffffffffffffffffffffffffffffffffffff1673ffffffffffffffffffffffffffffffffffffffff16815260200190815260200160002081905550808260030160008282546107129190611a5d565b9250508190555060003373ffffffffffffffffffffffffffffffffffffffff168260405161073f90611649565b60006040518083038185875af1925050503d806000811461077c576040519150601f19603f3d011682016040523d82523d6000602084013e610781565b606091505b50509050806107c5576040517f08c379a00000000000000000000000000000000000000000000000000000000081526004016107bc906118a4565b60405180910390fd5b3373ffffffffffffffffffffffffffffffffffffffff16847ff3f402280ef0a7905e124aa621b65eaeb2725c343e8b36d398ed78c29daf285c8460405161080c9190611964565b60405180910390a350505050565b60006001600083815260200190815260200160002090508060070160179054906101000a900460ff16610882576040517f08c379a000000000000000000000000000000000000000000000000000000000815260040161087990611884565b60405180910390fd5b80600501544210156108c9576040517f08c379a00000000000000000000000000000000000000000000000000000000081526004016108c0906118e4565b60405180910390fd5b8060060154421115610910576040517f08c379a0000000000000000000000000000000000000000000000000000000008152600401610907906117c4565b60405180910390fd5b8060070160149054906101000a900460ff1615610962576040517f08c379a000000000000000000000000000000000000000000000000000000000815260040161095990611824565b60405180910390fd5b600034116109a5576040517f08c379a000000000000000000000000000000000000000000000000000000000815260040161099c90611924565b60405180910390fd5b348160030160008282546109b99190611a07565b92505081905550348160040160008282546109d49190611a07565b92505081905550348160080160003373ffffffffffffffffffffffffffffffffffffffff1673ffffffffffffffffffffffffffffffffffffffff1681526020019081526020016000206000828254610a2c9190611a07565b925050819055503373ffffffffffffffffffffffffffffffffffffffff16827f0b5b4c52969ff7329ecf7ee536409fda87812b15a8622bc6e8cdeab3aee14a2634604051610a7a9190611964565b60405180910390a38060020154816003015410610aaf5760018160070160156101000a81548160ff0219169083151502179055505b5050565b60008311610af6576040517f08c379a0000000000000000000000000000000000000000000000000000000008152600401610aed90611804565b60405180910390fd5b808210610b38576040517f08c379a0000000000000000000000000000000000000000000000000000000008152600401610b2f90611864565b60405180910390fd5b6201518082610b479190611a07565b811015610b89576040517f08c379a0000000000000000000000000000000000000000000000000000000008152600401610b8090611904565b60405180910390fd5b600080549050600060016000838152602001908152602001600020905086816000019080519060200190610bbe929190610ff3565b5085816001019080519060200190610bd7929190610ff3565b50848160020181905550838160050181905550828160060181905550338160070160006101000a81548173ffffffffffffffffffffffffffffffffffffffff021916908373ffffffffffffffffffffffffffffffffffffffff16021790555060008160070160146101000a81548160ff02191690831515021790555060008160070160156101000a81548160ff02191690831515021790555060008160070160166101000a81548160ff02191690831515021790555060018160070160176101000a81548160ff02191690831515021790555060008160030181905550600081600401819055503373ffffffffffffffffffffffffffffffffffffffff16827f5154aeaff3cf749fe129443a883255976e69ca5e2db27a8614526887fa298c358989898989604051610d0d959493929190611679565b60405180910390a3600080815480929190610d2790611b4d565b919050555050505050505050565b60006001600083815260200190815260200160002060070160179054906101000a900460ff16610d9a576040517f08c379a0000000000000000000000000000000000000000000000000000000008152600401610d9190611884565b60405180910390fd5b6001600083815260200190815260200160002060070160149054906101000a900460ff169050919050565b6060806000806000806000806000806000600160008d815260200190815260200160002090508060070160179054906101000a900460ff16610e3c576040517f08c379a0000000000000000000000000000000000000000000000000000000008152600401610e3390611884565b60405180910390fd5b806000018160010182600201548360040154846005015485600601548660070160009054906101000a900473ffffffffffffffffffffffffffffffffffffffff168760070160149054906101000a900460ff168860070160159054906101000a900460ff168960070160169054906101000a900460ff16898054610ebf90611b1b565b80601f0160208091040260200160405190810160405280929190818152602001828054610eeb90611b1b565b8015610f385780601f10610f0d57610100808354040283529160200191610f38565b820191906000526020600020905b815481529060010190602001808311610f1b57829003601f168201915b50505050509950888054610f4b90611b1b565b80601f0160208091040260200160405190810160405280929190818152602001828054610f7790611b1b565b8015610fc45780601f10610f9957610100808354040283529160200191610fc4565b820191906000526020600020905b815481529060010190602001808311610fa757829003601f168201915b505050505098509a509a509a509a509a509a509a509a509a509a50509193959799509193959799565b60005481565b828054610fff90611b1b565b90600052602060002090601f0160209004810192826110215760008555611068565b82601f1061103a57805160ff1916838001178555611068565b82800160010185558215611068579182015b8281111561106757825182559160200191906001019061104c565b5b5090506110759190611079565b5090565b5b8082111561109257600081600090555060010161107a565b5090565b60006110a96110a4846119b0565b61197f565b9050828152602081018484840111156110c157600080fd5b6110cc848285611ad9565b509392505050565b600082601f8301126110e557600080fd5b81356110f5848260208601611096565b91505092915050565b60008135905061110d81611c34565b92915050565b600080600080600060a0868803121561112b57600080fd5b600086013567ffffffffffffffff81111561114557600080fd5b611151888289016110d4565b955050602086013567ffffffffffffffff81111561116e57600080fd5b61117a888289016110d4565b945050604061118b888289016110fe565b935050606061119c888289016110fe565b92505060806111ad888289016110fe565b9150509295509295909350565b6000602082840312156111cc57600080fd5b60006111da848285016110fe565b91505092915050565b6111ec81611a91565b82525050565b6111fb81611aa3565b82525050565b600061120c826119e0565b61121681856119f6565b9350611226818560208601611ae8565b61122f81611c23565b840191505092915050565b60006112476018836119f6565b91507f46756e64696e6720676f616c206e6f74207265616368656400000000000000006000830152602082019050919050565b60006112876016836119f6565b91507f43616d706169676e206e6f7420656e64656420796574000000000000000000006000830152602082019050919050565b60006112c76016836119f6565b91507f43616d706169676e20616c726561647920656e646564000000000000000000006000830152602082019050919050565b60006113076015836119f6565b91507f4e6f20646f6e6174696f6e20746f20726566756e6400000000000000000000006000830152602082019050919050565b60006113476010836119f6565b91507f476f616c206d757374206265203e2030000000000000000000000000000000006000830152602082019050919050565b60006113876017836119f6565b91507f43616d706169676e20616c726561647920636c6f7365640000000000000000006000830152602082019050919050565b60006113c76016836119f6565b91507f4f6e6c792063726561746f722063616e20636c61696d000000000000000000006000830152602082019050919050565b60006114076018836119f6565b91507f5374617274206d757374206265206265666f726520656e6400000000000000006000830152602082019050919050565b60006114476012836119f6565b91507f43616d706169676e206e6f7420666f756e6400000000000000000000000000006000830152602082019050919050565b6000611487600d836119f6565b91507f526566756e64206661696c6564000000000000000000000000000000000000006000830152602082019050919050565b60006114c76014836119f6565b91507f46756e64207472616e73666572206661696c65640000000000000000000000006000830152602082019050919050565b60006115076018836119f6565b91507f43616d706169676e206e6f7420737461727465642079657400000000000000006000830152602082019050919050565b60006115476000836119eb565b9150600082019050919050565b60006115616021836119f6565b91507f43616d706169676e206d757374206c617374206174206c65617374203120646160008301527f79000000000000000000000000000000000000000000000000000000000000006020830152604082019050919050565b60006115c7600d836119f6565b91507f4d7573742073656e6420455448000000000000000000000000000000000000006000830152602082019050919050565b6000611607601c836119f6565b91507f476f616c2077617320726561636865642c206e6f20726566756e6473000000006000830152602082019050919050565b61164381611acf565b82525050565b60006116548261153a565b9150819050919050565b600060208201905061167360008301846111f2565b92915050565b600060a08201905081810360008301526116938188611201565b905081810360208301526116a78187611201565b90506116b6604083018661163a565b6116c3606083018561163a565b6116d0608083018461163a565b9695505050505050565b60006101408201905081810360008301526116f5818d611201565b90508181036020830152611709818c611201565b9050611718604083018b61163a565b611725606083018a61163a565b611732608083018961163a565b61173f60a083018861163a565b61174c60c08301876111e3565b61175960e08301866111f2565b6117676101008301856111f2565b6117756101208301846111f2565b9b9a5050505050505050505050565b6000602082019050818103600083015261179d8161123a565b9050919050565b600060208201905081810360008301526117bd8161127a565b9050919050565b600060208201905081810360008301526117dd816112ba565b9050919050565b600060208201905081810360008301526117fd816112fa565b9050919050565b6000602082019050818103600083015261181d8161133a565b9050919050565b6000602082019050818103600083015261183d8161137a565b9050919050565b6000602082019050818103600083015261185d816113ba565b9050919050565b6000602082019050818103600083015261187d816113fa565b9050919050565b6000602082019050818103600083015261189d8161143a565b9050919050565b600060208201905081810360008301526118bd8161147a565b9050919050565b600060208201905081810360008301526118dd816114ba565b9050919050565b600060208201905081810360008301526118fd816114fa565b9050919050565b6000602082019050818103600083015261191d81611554565b9050919050565b6000602082019050818103600083015261193d816115ba565b9050919050565b6000602082019050818103600083015261195d816115fa565b9050919050565b6000602082019050611979600083018461163a565b92915050565b6000604051905081810181811067ffffffffffffffff821117156119a6576119a5611bf4565b5b8060405250919050565b600067ffffffffffffffff8211156119cb576119ca611bf4565b5b601f19601f8301169050602081019050919050565b600081519050919050565b600081905092915050565b600082825260208201905092915050565b6000611a1282611acf565b9150611a1d83611acf565b9250827fffffffffffffffffffffffffffffffffffffffffffffffffffffffffffffffff03821115611a5257611a51611b96565b5b828201905092915050565b6000611a6882611acf565b9150611a7383611acf565b925082821015611a8657611a85611b96565b5b828203905092915050565b6000611a9c82611aaf565b9050919050565b60008115159050919050565b600073ffffffffffffffffffffffffffffffffffffffff82169050919050565b6000819050919050565b82818337600083830152505050565b60005b83811015611b06578082015181840152602081019050611aeb565b83811115611b15576000848401525b50505050565b60006002820490506001821680611b3357607f821691505b60208210811415611b4757611b46611bc5565b5b50919050565b6000611b5882611acf565b91507fffffffffffffffffffffffffffffffffffffffffffffffffffffffffffffffff821415611b8b57611b8a611b96565b5b600182019050919050565b7f4e487b7100000000000000000000000000000000000000000000000000000000600052601160045260246000fd5b7f4e487b7100000000000000000000000000000000000000000000000000000000600052602260045260246000fd5b7f4e487b7100000000000000000000000000000000000000000000000000000000600052604160045260246000fd5b6000601f19601f8301169050919050565b611c3d81611acf565b8114611c4857600080fd5b5056fea2646970667358221220fcd94e906834f77b71732b159f6b51fdff36ef98438de9e00fe411843d71771464736f6c63430008000033",
  "immutableReferences": {},
  "source": "// SPDX-License-Identifier: MIT\npragma solidity ^0.8.0;\n\ncontract CrowdXCampaign {\n    uint public campaignCounter = 1;\n\n    struct Campaign {\n        string  title;\n        string  description;\n        uint    goalAmount;\n        uint    currentAmount;\n        uint    totalRaised;  // <- NEW FIELD (will stay permanently after funds claimed)\n        uint    startTime;\n        uint    endTime;\n        address creator;\n        bool    closed;\n        bool    goalReached;\n        bool    fundsClaimed; // <- NEW FIELD (true if creator claimed payout)\n        bool    exists;\n        mapping(address => uint) donations;\n    }\n\n    mapping(uint => Campaign) private campaigns;\n\n    /// Events\n    event CampaignCreated(\n        uint indexed campaignId,\n        string title,\n        string description,\n        uint goalAmount,\n        uint startTime,\n        uint endTime,\n        address indexed creator\n    );\n\n    event DonationReceived(\n        uint indexed campaignId,\n        address indexed donor,\n        uint amount\n    );\n\n    event CampaignClosed(\n        uint indexed campaignId,\n        address indexed creator,\n        uint totalRaised\n    );\n\n    event RefundClaimed(\n        uint indexed campaignId,\n        address indexed donor,\n        uint amount\n    );\n\n    event FundsClaimed(\n        uint indexed campaignId,\n        address indexed creator,\n        uint amount\n    );\n\n    /// Create a new campaign\n    function createCampaign(\n        string memory _title,\n        string memory _description,\n        uint _goalAmount,\n        uint _startTime,\n        uint _endTime\n    ) external {\n        require(_goalAmount > 0, \"Goal must be > 0\");\n        require(_startTime < _endTime, \"Start must be before end\");\n        require(_endTime >= _startTime + 1 days, \"Campaign must last at least 1 day\");\n\n        uint id = campaignCounter;\n        Campaign storage c = campaigns[id];\n        c.title = _title;\n        c.description = _description;\n        c.goalAmount = _goalAmount;\n        c.startTime = _startTime;\n        c.endTime = _endTime;\n        c.creator = msg.sender;\n        c.closed = false;\n        c.goalReached = false;\n        c.fundsClaimed = false;\n        c.exists = true;\n        c.currentAmount = 0;\n        c.totalRaised = 0;\n\n        emit CampaignCreated(\n            id, _title, _description, _goalAmount, _startTime, _endTime, msg.sender\n        );\n\n        campaignCounter++;\n    }\n\n    /// Donate ETH to a campaign\n    function donateCampaign(uint _campaignId) external payable {\n        Campaign storage c = campaigns[_campaignId];\n        require(c.exists, \"Campaign not found\");\n        require(block.timestamp >= c.startTime, \"Campaign not started yet\");\n        require(block.timestamp <= c.endTime, \"Campaign already ended\");\n        require(!c.closed, \"Campaign already closed\");\n        require(msg.value > 0, \"Must send ETH\");\n\n        c.currentAmount += msg.value;\n        c.totalRaised += msg.value; // <- Also update totalRaised PERMANENTLY\n        c.donations[msg.sender] += msg.value;\n\n        emit DonationReceived(_campaignId, msg.sender, msg.value);\n\n        if (c.currentAmount >= c.goalAmount) {\n            c.goalReached = true;\n        }\n    }\n\n    /// Creator claims funds after reaching goal\n    function claimFunds(uint _campaignId) external {\n        Campaign storage c = campaigns[_campaignId];\n        require(c.exists, \"Campaign not found\");\n        require(c.creator == msg.sender, \"Only creator can claim\");\n        require(!c.closed, \"Campaign already closed\");\n        require(c.goalReached, \"Funding goal not reached\");\n\n        c.closed = true;\n        c.fundsClaimed = true; // <- Mark funds claimed\n        uint payout = c.currentAmount;\n        c.currentAmount = 0;\n\n        (bool sent, ) = payable(c.creator).call{value: payout}(\"\");\n        require(sent, \"Fund transfer failed\");\n\n        emit FundsClaimed(_campaignId, c.creator, payout);\n    }\n\n    /// Donors can claim refund if campaign failed after end time\n    function claimRefund(uint _campaignId) external {\n        Campaign storage c = campaigns[_campaignId];\n        require(c.exists, \"Campaign not found\");\n        require(block.timestamp > c.endTime, \"Campaign not ended yet\");\n        require(!c.goalReached, \"Goal was reached, no refunds\");\n        require(c.donations[msg.sender] > 0, \"No donation to refund\");\n\n        uint amount = c.donations[msg.sender];\n        c.donations[msg.sender] = 0;\n        c.currentAmount -= amount;\n\n        (bool sent, ) = payable(msg.sender).call{value: amount}(\"\");\n        require(sent, \"Refund failed\");\n\n        emit RefundClaimed(_campaignId, msg.sender, amount);\n    }\n\n    /// Check if campaign is closed\n    function isClosed(uint _campaignId) external view returns (bool) {\n        require(campaigns[_campaignId].exists, \"Campaign not found\");\n        return campaigns[_campaignId].closed;\n    }\n\n    /// View public info of a campaign\n    function viewCampaign(uint _campaignId) external view returns (\n        string memory, string memory, uint, uint, uint, uint, address, bool, bool, bool\n    ) {\n        Campaign storage c = campaigns[_campaignId];\n        require(c.exists, \"Campaign not found\");\n        return (\n            c.title,\n            c.description,\n            c.goalAmount,\n            c.totalRaised,   // <- Always show the full raised amount\n            c.startTime,\n            c.endTime,\n            c.creator,\n            c.closed,\n            c.goalReached,\n            c.fundsClaimed   // <- New: show if funds were claimed\n        );\n    }\n}\n",
  "sourcePath": "/home/master/Documents/Blockchain-Project/ClassFolder/Frontend/CrowdX2-SmartContract/contracts/CrowdXCampaign.sol",
  "compiler": {
    "name": "solc",
    "version": "0.8.0+commit.c7dfd78e.Emscripten.clang"
  },
  "schemaVersion": "3.4.16",
  "updatedAt": "2025-04-29T04:10:01.429Z",
  "networkType": "ethereum",
  "devdoc": {
    "kind": "dev",
    "methods": {},
    "version": 1
  },
  "userdoc": {
    "events": {
      "CampaignCreated(uint256,string,string,uint256,uint256,uint256,address)": {
        "notice": "Events"
      }
    },
    "kind": "user",
    "methods": {
      "claimFunds(uint256)": {
        "notice": "Creator claims funds after reaching goal"
      },
      "claimRefund(uint256)": {
        "notice": "Donors can claim refund if campaign failed after end time"
      },
      "createCampaign(string,string,uint256,uint256,uint256)": {
        "notice": "Create a new campaign"
      },
      "donateCampaign(uint256)": {
        "notice": "Donate ETH to a campaign"
      },
      "isClosed(uint256)": {
        "notice": "Check if campaign is closed"
      },
      "viewCampaign(uint256)": {
        "notice": "View public info of a campaign"
      }
    },
    "version": 1
  }
}